{
	"UniswapV4/types/Currency.sol": {
		"CurrencyLibrary": {
			"abi": [
				{
					"inputs": [],
					"name": "ERC20TransferFailed",
					"type": "error"
				},
				{
					"inputs": [],
					"name": "NativeTransferFailed",
					"type": "error"
				},
				{
					"inputs": [],
					"name": "ADDRESS_ZERO",
					"outputs": [
						{
							"internalType": "Currency",
							"name": "",
							"type": "address"
						}
					],
					"stateMutability": "view",
					"type": "function"
				}
			],
			"devdoc": {
				"details": "This library allows for transferring and holding native tokens and ERC20 tokens",
				"kind": "dev",
				"methods": {},
				"title": "CurrencyLibrary",
				"version": 1
			},
			"evm": {
				"assembly": "    /* \"UniswapV4/types/Currency.sol\":1059:5457  library CurrencyLibrary {... */\n  dataSize(sub_0)\n  dataOffset(sub_0)\n  0x0b\n  dup3\n  dup3\n  dup3\n  codecopy\n  dup1\n  mload\n  0x00\n  byte\n  0x73\n  eq\n  tag_1\n  jumpi\n  mstore(0x00, shl(0xe0, 0x4e487b71))\n  mstore(0x04, 0x00)\n  revert(0x00, 0x24)\ntag_1:\n  mstore(0x00, address)\n  0x73\n  dup2\n  mstore8\n  dup3\n  dup2\n  return\nstop\n\nsub_0: assembly {\n        /* \"UniswapV4/types/Currency.sol\":1059:5457  library CurrencyLibrary {... */\n      eq(address, deployTimeAddress())\n      mstore(0x40, 0x80)\n      jumpi(tag_1, lt(calldatasize, 0x04))\n      shr(0xe0, calldataload(0x00))\n      dup1\n      0x66e79509\n      eq\n      tag_2\n      jumpi\n    tag_1:\n      0x00\n      dup1\n      revert\n        /* \"UniswapV4/types/Currency.sol\":1400:1465  Currency public constant ADDRESS_ZERO = Currency.wrap(address(0)) */\n    tag_2:\n      tag_3\n        /* \"UniswapV4/types/Currency.sol\":1462:1463  0 */\n      0x00\n        /* \"UniswapV4/types/Currency.sol\":1400:1465  Currency public constant ADDRESS_ZERO = Currency.wrap(address(0)) */\n      dup2\n      jump\n    tag_3:\n      mload(0x40)\n      sub(shl(0xa0, 0x01), 0x01)\n        /* \"#utility.yul\":215:247   */\n      swap1\n      swap2\n      and\n        /* \"#utility.yul\":197:248   */\n      dup2\n      mstore\n        /* \"#utility.yul\":185:187   */\n      0x20\n        /* \"#utility.yul\":170:188   */\n      add\n        /* \"UniswapV4/types/Currency.sol\":1400:1465  Currency public constant ADDRESS_ZERO = Currency.wrap(address(0)) */\n      mload(0x40)\n      dup1\n      swap2\n      sub\n      swap1\n      return\n\n    auxdata: 0xa2646970667358221220cf1b30976896ad7061e411f086c1e16f5a18099c7330be9d815886f4ec31ca0a64736f6c634300081a0033\n}\n",
				"bytecode": {
					"linkReferences": {},
					"object": "608e6032600b8282823980515f1a607314602657634e487b7160e01b5f525f60045260245ffd5b305f52607381538281f3fe73000000000000000000000000000000000000000030146080604052600436106032575f3560e01c806366e79509146036575b5f80fd5b603c5f81565b6040516001600160a01b03909116815260200160405180910390f3fea2646970667358221220cf1b30976896ad7061e411f086c1e16f5a18099c7330be9d815886f4ec31ca0a64736f6c634300081a0033",
					"opcodes": "PUSH1 0x8E PUSH1 0x32 PUSH1 0xB DUP3 DUP3 DUP3 CODECOPY DUP1 MLOAD PUSH0 BYTE PUSH1 0x73 EQ PUSH1 0x26 JUMPI PUSH4 0x4E487B71 PUSH1 0xE0 SHL PUSH0 MSTORE PUSH0 PUSH1 0x4 MSTORE PUSH1 0x24 PUSH0 REVERT JUMPDEST ADDRESS PUSH0 MSTORE PUSH1 0x73 DUP2 MSTORE8 DUP3 DUP2 RETURN INVALID PUSH20 0x0 ADDRESS EQ PUSH1 0x80 PUSH1 0x40 MSTORE PUSH1 0x4 CALLDATASIZE LT PUSH1 0x32 JUMPI PUSH0 CALLDATALOAD PUSH1 0xE0 SHR DUP1 PUSH4 0x66E79509 EQ PUSH1 0x36 JUMPI JUMPDEST PUSH0 DUP1 REVERT JUMPDEST PUSH1 0x3C PUSH0 DUP2 JUMP JUMPDEST PUSH1 0x40 MLOAD PUSH1 0x1 PUSH1 0x1 PUSH1 0xA0 SHL SUB SWAP1 SWAP2 AND DUP2 MSTORE PUSH1 0x20 ADD PUSH1 0x40 MLOAD DUP1 SWAP2 SUB SWAP1 RETURN INVALID LOG2 PUSH5 0x6970667358 0x22 SLT KECCAK256 0xCF SHL ADDRESS SWAP8 PUSH9 0x96AD7061E411F086C1 0xE1 PUSH16 0x5A18099C7330BE9D815886F4EC31CA0A PUSH5 0x736F6C6343 STOP ADDMOD BYTE STOP CALLER "
				},
				"gasEstimates": {
					"creation": {
						"codeDepositCost": "28400",
						"executionCost": "108",
						"totalCost": "28508"
					},
					"external": {
						"ADDRESS_ZERO()": "164"
					},
					"internal": {
						"balanceOf(Currency,address)": "infinite",
						"balanceOfSelf(Currency)": "infinite",
						"fromId(uint256)": "infinite",
						"isAddressZero(Currency)": "infinite",
						"toId(Currency)": "infinite",
						"transfer(Currency,address,uint256)": "infinite"
					}
				},
				"methodIdentifiers": {
					"ADDRESS_ZERO()": "66e79509"
				}
			},
			"storageLayout": {
				"storage": [],
				"types": null
			},
			"userdoc": {
				"errors": {
					"ERC20TransferFailed()": [
						{
							"notice": "Additional context for ERC-7751 wrapped error when an ERC20 transfer fails"
						}
					],
					"NativeTransferFailed()": [
						{
							"notice": "Additional context for ERC-7751 wrapped error when a native transfer fails"
						}
					]
				},
				"kind": "user",
				"methods": {
					"ADDRESS_ZERO()": {
						"notice": "A constant to represent the native currency"
					}
				},
				"version": 1
			}
		}
	}
}